{
  "_format": "hh-sol-artifact-1",
  "contractName": "MultiTransfer",
  "sourceName": "contracts/MultiTransfer.sol",
  "abi": [
    {
      "inputs": [],
      "stateMutability": "nonpayable",
      "type": "constructor"
    },
    {
      "inputs": [
        {
          "internalType": "address",
          "name": "owner",
          "type": "address"
        }
      ],
      "name": "OwnableInvalidOwner",
      "type": "error"
    },
    {
      "inputs": [
        {
          "internalType": "address",
          "name": "account",
          "type": "address"
        }
      ],
      "name": "OwnableUnauthorizedAccount",
      "type": "error"
    },
    {
      "anonymous": false,
      "inputs": [
        {
          "indexed": true,
          "internalType": "address",
          "name": "previousOwner",
          "type": "address"
        },
        {
          "indexed": true,
          "internalType": "address",
          "name": "newOwner",
          "type": "address"
        }
      ],
      "name": "OwnershipTransferred",
      "type": "event"
    },
    {
      "anonymous": false,
      "inputs": [
        {
          "indexed": true,
          "internalType": "address",
          "name": "sender",
          "type": "address"
        },
        {
          "indexed": false,
          "internalType": "uint256",
          "name": "totalAmount",
          "type": "uint256"
        },
        {
          "indexed": false,
          "internalType": "uint256",
          "name": "recipientCount",
          "type": "uint256"
        }
      ],
      "name": "TransferExecuted",
      "type": "event"
    },
    {
      "inputs": [
        {
          "internalType": "address[]",
          "name": "recipients",
          "type": "address[]"
        }
      ],
      "name": "distributeETH",
      "outputs": [],
      "stateMutability": "payable",
      "type": "function"
    },
    {
      "inputs": [],
      "name": "owner",
      "outputs": [
        {
          "internalType": "address",
          "name": "",
          "type": "address"
        }
      ],
      "stateMutability": "view",
      "type": "function"
    },
    {
      "inputs": [],
      "name": "renounceOwnership",
      "outputs": [],
      "stateMutability": "nonpayable",
      "type": "function"
    },
    {
      "inputs": [
        {
          "internalType": "address",
          "name": "newOwner",
          "type": "address"
        }
      ],
      "name": "transferOwnership",
      "outputs": [],
      "stateMutability": "nonpayable",
      "type": "function"
    },
    {
      "stateMutability": "payable",
      "type": "receive"
    }
  ],
  "bytecode": "0x608060405234801561001057600080fd5b5033600073ffffffffffffffffffffffffffffffffffffffff168173ffffffffffffffffffffffffffffffffffffffff16036100845760006040517f1e4fbdf700000000000000000000000000000000000000000000000000000000815260040161007b919061019e565b60405180910390fd5b6100938161009960201b60201c565b506101b9565b60008060009054906101000a900473ffffffffffffffffffffffffffffffffffffffff169050816000806101000a81548173ffffffffffffffffffffffffffffffffffffffff021916908373ffffffffffffffffffffffffffffffffffffffff1602179055508173ffffffffffffffffffffffffffffffffffffffff168173ffffffffffffffffffffffffffffffffffffffff167f8be0079c531659141344cd1fd0a4f28419497f9722a3daafe3b4186f6b6457e060405160405180910390a35050565b600073ffffffffffffffffffffffffffffffffffffffff82169050919050565b60006101888261015d565b9050919050565b6101988161017d565b82525050565b60006020820190506101b3600083018461018f565b92915050565b610a09806101c86000396000f3fe6080604052600436106100435760003560e01c8063715018a61461004f5780638da5cb5b14610066578063a0116d5c14610091578063f2fde38b146100ad5761004a565b3661004a57005b600080fd5b34801561005b57600080fd5b506100646100d6565b005b34801561007257600080fd5b5061007b6100ea565b604051610088919061055b565b60405180910390f35b6100ab60048036038101906100a691906105e5565b610113565b005b3480156100b957600080fd5b506100d460048036038101906100cf919061065e565b610341565b005b6100de6103c7565b6100e8600061044e565b565b60008060009054906101000a900473ffffffffffffffffffffffffffffffffffffffff16905090565b60008282905011801561012a5750600a8282905011155b610169576040517f08c379a0000000000000000000000000000000000000000000000000000000008152600401610160906106e8565b60405180910390fd5b600034116101ac576040517f08c379a00000000000000000000000000000000000000000000000000000000081526004016101a390610754565b60405180910390fd5b600082829050346101bd91906107dc565b9050600083839050346101d0919061080d565b905060005b848490508110156102e75760008082146101f05760006101f2565b825b846101fd919061083e565b9050600086868481811061021457610213610872565b5b9050602002016020810190610229919061065e565b73ffffffffffffffffffffffffffffffffffffffff168260405161024c906108d2565b60006040518083038185875af1925050503d8060008114610289576040519150601f19603f3d011682016040523d82523d6000602084013e61028e565b606091505b50509050806102d2576040517f08c379a00000000000000000000000000000000000000000000000000000000081526004016102c990610933565b60405180910390fd5b505080806102df90610953565b9150506101d5565b503373ffffffffffffffffffffffffffffffffffffffff167ff8d62a11d316e69c1460662f86b7046003826db86fdc0d5ffa8c3adaa24f0a5834868690506040516103339291906109aa565b60405180910390a250505050565b6103496103c7565b600073ffffffffffffffffffffffffffffffffffffffff168173ffffffffffffffffffffffffffffffffffffffff16036103bb5760006040517f1e4fbdf70000000000000000000000000000000000000000000000000000000081526004016103b2919061055b565b60405180910390fd5b6103c48161044e565b50565b6103cf610512565b73ffffffffffffffffffffffffffffffffffffffff166103ed6100ea565b73ffffffffffffffffffffffffffffffffffffffff161461044c57610410610512565b6040517f118cdaa7000000000000000000000000000000000000000000000000000000008152600401610443919061055b565b60405180910390fd5b565b60008060009054906101000a900473ffffffffffffffffffffffffffffffffffffffff169050816000806101000a81548173ffffffffffffffffffffffffffffffffffffffff021916908373ffffffffffffffffffffffffffffffffffffffff1602179055508173ffffffffffffffffffffffffffffffffffffffff168173ffffffffffffffffffffffffffffffffffffffff167f8be0079c531659141344cd1fd0a4f28419497f9722a3daafe3b4186f6b6457e060405160405180910390a35050565b600033905090565b600073ffffffffffffffffffffffffffffffffffffffff82169050919050565b60006105458261051a565b9050919050565b6105558161053a565b82525050565b6000602082019050610570600083018461054c565b92915050565b600080fd5b600080fd5b600080fd5b600080fd5b600080fd5b60008083601f8401126105a5576105a4610580565b5b8235905067ffffffffffffffff8111156105c2576105c1610585565b5b6020830191508360208202830111156105de576105dd61058a565b5b9250929050565b600080602083850312156105fc576105fb610576565b5b600083013567ffffffffffffffff81111561061a5761061961057b565b5b6106268582860161058f565b92509250509250929050565b61063b8161053a565b811461064657600080fd5b50565b60008135905061065881610632565b92915050565b60006020828403121561067457610673610576565b5b600061068284828501610649565b91505092915050565b600082825260208201905092915050565b7f4d617820313020726563697069656e747320616c6c6f77656400000000000000600082015250565b60006106d260198361068b565b91506106dd8261069c565b602082019050919050565b60006020820190508181036000830152610701816106c5565b9050919050565b7f4d7573742073656e642045544800000000000000000000000000000000000000600082015250565b600061073e600d8361068b565b915061074982610708565b602082019050919050565b6000602082019050818103600083015261076d81610731565b9050919050565b6000819050919050565b7f4e487b7100000000000000000000000000000000000000000000000000000000600052601260045260246000fd5b7f4e487b7100000000000000000000000000000000000000000000000000000000600052601160045260246000fd5b60006107e782610774565b91506107f283610774565b9250826108025761080161077e565b5b828204905092915050565b600061081882610774565b915061082383610774565b9250826108335761083261077e565b5b828206905092915050565b600061084982610774565b915061085483610774565b925082820190508082111561086c5761086b6107ad565b5b92915050565b7f4e487b7100000000000000000000000000000000000000000000000000000000600052603260045260246000fd5b600081905092915050565b50565b60006108bc6000836108a1565b91506108c7826108ac565b600082019050919050565b60006108dd826108af565b9150819050919050565b7f455448205472616e73666572206661696c656400000000000000000000000000600082015250565b600061091d60138361068b565b9150610928826108e7565b602082019050919050565b6000602082019050818103600083015261094c81610910565b9050919050565b600061095e82610774565b91507fffffffffffffffffffffffffffffffffffffffffffffffffffffffffffffffff82036109905761098f6107ad565b5b600182019050919050565b6109a481610774565b82525050565b60006040820190506109bf600083018561099b565b6109cc602083018461099b565b939250505056fea2646970667358221220689eb01256051d8caaf4e208cbd1426e085882349241fbda6aa7b20c8bdfdff664736f6c63430008140033",
  "linkReferences": {},
  "deployedLinkReferences": {}
}