{"contracts/MultiTransfer.sol":{"MultiTransfer":{"abi":[{"inputs":[],"stateMutability":"nonpayable","type":"constructor"},{"inputs":[{"internalType":"address","name":"owner","type":"address"}],"name":"OwnableInvalidOwner","type":"error"},{"inputs":[{"internalType":"address","name":"account","type":"address"}],"name":"OwnableUnauthorizedAccount","type":"error"},{"anonymous":false,"inputs":[{"indexed":true,"internalType":"address","name":"previousOwner","type":"address"},{"indexed":true,"internalType":"address","name":"newOwner","type":"address"}],"name":"OwnershipTransferred","type":"event"},{"anonymous":false,"inputs":[{"indexed":true,"internalType":"address","name":"sender","type":"address"},{"indexed":false,"internalType":"uint256","name":"totalAmount","type":"uint256"},{"indexed":false,"internalType":"uint256","name":"recipientCount","type":"uint256"}],"name":"TransferExecuted","type":"event"},{"inputs":[{"internalType":"address[]","name":"recipients","type":"address[]"}],"name":"distributeETH","outputs":[],"stateMutability":"payable","type":"function"},{"inputs":[],"name":"owner","outputs":[{"internalType":"address","name":"","type":"address"}],"stateMutability":"view","type":"function"},{"inputs":[],"name":"renounceOwnership","outputs":[],"stateMutability":"nonpayable","type":"function"},{"inputs":[{"internalType":"address","name":"newOwner","type":"address"}],"name":"transferOwnership","outputs":[],"stateMutability":"nonpayable","type":"function"},{"stateMutability":"payable","type":"receive"}],"evm":{"bytecode":{"linkReferences":{},"object":"608060405234801561001057600080fd5b5033600073ffffffffffffffffffffffffffffffffffffffff168173ffffffffffffffffffffffffffffffffffffffff16036100845760006040517f1e4fbdf700000000000000000000000000000000000000000000000000000000815260040161007b919061019e565b60405180910390fd5b6100938161009960201b60201c565b506101b9565b60008060009054906101000a900473ffffffffffffffffffffffffffffffffffffffff169050816000806101000a81548173ffffffffffffffffffffffffffffffffffffffff021916908373ffffffffffffffffffffffffffffffffffffffff1602179055508173ffffffffffffffffffffffffffffffffffffffff168173ffffffffffffffffffffffffffffffffffffffff167f8be0079c531659141344cd1fd0a4f28419497f9722a3daafe3b4186f6b6457e060405160405180910390a35050565b600073ffffffffffffffffffffffffffffffffffffffff82169050919050565b60006101888261015d565b9050919050565b6101988161017d565b82525050565b60006020820190506101b3600083018461018f565b92915050565b610a09806101c86000396000f3fe6080604052600436106100435760003560e01c8063715018a61461004f5780638da5cb5b14610066578063a0116d5c14610091578063f2fde38b146100ad5761004a565b3661004a57005b600080fd5b34801561005b57600080fd5b506100646100d6565b005b34801561007257600080fd5b5061007b6100ea565b604051610088919061055b565b60405180910390f35b6100ab60048036038101906100a691906105e5565b610113565b005b3480156100b957600080fd5b506100d460048036038101906100cf919061065e565b610341565b005b6100de6103c7565b6100e8600061044e565b565b60008060009054906101000a900473ffffffffffffffffffffffffffffffffffffffff16905090565b60008282905011801561012a5750600a8282905011155b610169576040517f08c379a0000000000000000000000000000000000000000000000000000000008152600401610160906106e8565b60405180910390fd5b600034116101ac576040517f08c379a00000000000000000000000000000000000000000000000000000000081526004016101a390610754565b60405180910390fd5b600082829050346101bd91906107dc565b9050600083839050346101d0919061080d565b905060005b848490508110156102e75760008082146101f05760006101f2565b825b846101fd919061083e565b9050600086868481811061021457610213610872565b5b9050602002016020810190610229919061065e565b73ffffffffffffffffffffffffffffffffffffffff168260405161024c906108d2565b60006040518083038185875af1925050503d8060008114610289576040519150601f19603f3d011682016040523d82523d6000602084013e61028e565b606091505b50509050806102d2576040517f08c379a00000000000000000000000000000000000000000000000000000000081526004016102c990610933565b60405180910390fd5b505080806102df90610953565b9150506101d5565b503373ffffffffffffffffffffffffffffffffffffffff167ff8d62a11d316e69c1460662f86b7046003826db86fdc0d5ffa8c3adaa24f0a5834868690506040516103339291906109aa565b60405180910390a250505050565b6103496103c7565b600073ffffffffffffffffffffffffffffffffffffffff168173ffffffffffffffffffffffffffffffffffffffff16036103bb5760006040517f1e4fbdf70000000000000000000000000000000000000000000000000000000081526004016103b2919061055b565b60405180910390fd5b6103c48161044e565b50565b6103cf610512565b73ffffffffffffffffffffffffffffffffffffffff166103ed6100ea565b73ffffffffffffffffffffffffffffffffffffffff161461044c57610410610512565b6040517f118cdaa7000000000000000000000000000000000000000000000000000000008152600401610443919061055b565b60405180910390fd5b565b60008060009054906101000a900473ffffffffffffffffffffffffffffffffffffffff169050816000806101000a81548173ffffffffffffffffffffffffffffffffffffffff021916908373ffffffffffffffffffffffffffffffffffffffff1602179055508173ffffffffffffffffffffffffffffffffffffffff168173ffffffffffffffffffffffffffffffffffffffff167f8be0079c531659141344cd1fd0a4f28419497f9722a3daafe3b4186f6b6457e060405160405180910390a35050565b600033905090565b600073ffffffffffffffffffffffffffffffffffffffff82169050919050565b60006105458261051a565b9050919050565b6105558161053a565b82525050565b6000602082019050610570600083018461054c565b92915050565b600080fd5b600080fd5b600080fd5b600080fd5b600080fd5b60008083601f8401126105a5576105a4610580565b5b8235905067ffffffffffffffff8111156105c2576105c1610585565b5b6020830191508360208202830111156105de576105dd61058a565b5b9250929050565b600080602083850312156105fc576105fb610576565b5b600083013567ffffffffffffffff81111561061a5761061961057b565b5b6106268582860161058f565b92509250509250929050565b61063b8161053a565b811461064657600080fd5b50565b60008135905061065881610632565b92915050565b60006020828403121561067457610673610576565b5b600061068284828501610649565b91505092915050565b600082825260208201905092915050565b7f4d617820313020726563697069656e747320616c6c6f77656400000000000000600082015250565b60006106d260198361068b565b91506106dd8261069c565b602082019050919050565b60006020820190508181036000830152610701816106c5565b9050919050565b7f4d7573742073656e642045544800000000000000000000000000000000000000600082015250565b600061073e600d8361068b565b915061074982610708565b602082019050919050565b6000602082019050818103600083015261076d81610731565b9050919050565b6000819050919050565b7f4e487b7100000000000000000000000000000000000000000000000000000000600052601260045260246000fd5b7f4e487b7100000000000000000000000000000000000000000000000000000000600052601160045260246000fd5b60006107e782610774565b91506107f283610774565b9250826108025761080161077e565b5b828204905092915050565b600061081882610774565b915061082383610774565b9250826108335761083261077e565b5b828206905092915050565b600061084982610774565b915061085483610774565b925082820190508082111561086c5761086b6107ad565b5b92915050565b7f4e487b7100000000000000000000000000000000000000000000000000000000600052603260045260246000fd5b600081905092915050565b50565b60006108bc6000836108a1565b91506108c7826108ac565b600082019050919050565b60006108dd826108af565b9150819050919050565b7f455448205472616e73666572206661696c656400000000000000000000000000600082015250565b600061091d60138361068b565b9150610928826108e7565b602082019050919050565b6000602082019050818103600083015261094c81610910565b9050919050565b600061095e82610774565b91507fffffffffffffffffffffffffffffffffffffffffffffffffffffffffffffffff82036109905761098f6107ad565b5b600182019050919050565b6109a481610774565b82525050565b60006040820190506109bf600083018561099b565b6109cc602083018461099b565b939250505056fea2646970667358221220689eb01256051d8caaf4e208cbd1426e085882349241fbda6aa7b20c8bdfdff664736f6c63430008140033","opcodes":"PUSH1 0x80 PUSH1 0x40 MSTORE CALLVALUE DUP1 ISZERO PUSH2 0x10 JUMPI PUSH1 0x0 DUP1 REVERT JUMPDEST POP CALLER PUSH1 0x0 PUSH20 0xFFFFFFFFFFFFFFFFFFFFFFFFFFFFFFFFFFFFFFFF AND DUP2 PUSH20 0xFFFFFFFFFFFFFFFFFFFFFFFFFFFFFFFFFFFFFFFF AND SUB PUSH2 0x84 JUMPI PUSH1 0x0 PUSH1 0x40 MLOAD PUSH32 0x1E4FBDF700000000000000000000000000000000000000000000000000000000 DUP2 MSTORE PUSH1 0x4 ADD PUSH2 0x7B SWAP2 SWAP1 PUSH2 0x19E JUMP JUMPDEST PUSH1 0x40 MLOAD DUP1 SWAP2 SUB SWAP1 REVERT JUMPDEST PUSH2 0x93 DUP2 PUSH2 0x99 PUSH1 0x20 SHL PUSH1 0x20 SHR JUMP JUMPDEST POP PUSH2 0x1B9 JUMP JUMPDEST PUSH1 0x0 DUP1 PUSH1 0x0 SWAP1 SLOAD SWAP1 PUSH2 0x100 EXP SWAP1 DIV PUSH20 0xFFFFFFFFFFFFFFFFFFFFFFFFFFFFFFFFFFFFFFFF AND SWAP1 POP DUP2 PUSH1 0x0 DUP1 PUSH2 0x100 EXP DUP2 SLOAD DUP2 PUSH20 0xFFFFFFFFFFFFFFFFFFFFFFFFFFFFFFFFFFFFFFFF MUL NOT AND SWAP1 DUP4 PUSH20 0xFFFFFFFFFFFFFFFFFFFFFFFFFFFFFFFFFFFFFFFF AND MUL OR SWAP1 SSTORE POP DUP2 PUSH20 0xFFFFFFFFFFFFFFFFFFFFFFFFFFFFFFFFFFFFFFFF AND DUP2 PUSH20 0xFFFFFFFFFFFFFFFFFFFFFFFFFFFFFFFFFFFFFFFF AND PUSH32 0x8BE0079C531659141344CD1FD0A4F28419497F9722A3DAAFE3B4186F6B6457E0 PUSH1 0x40 MLOAD PUSH1 0x40 MLOAD DUP1 SWAP2 SUB SWAP1 LOG3 POP POP JUMP JUMPDEST PUSH1 0x0 PUSH20 0xFFFFFFFFFFFFFFFFFFFFFFFFFFFFFFFFFFFFFFFF DUP3 AND SWAP1 POP SWAP2 SWAP1 POP JUMP JUMPDEST PUSH1 0x0 PUSH2 0x188 DUP3 PUSH2 0x15D JUMP JUMPDEST SWAP1 POP SWAP2 SWAP1 POP JUMP JUMPDEST PUSH2 0x198 DUP2 PUSH2 0x17D JUMP JUMPDEST DUP3 MSTORE POP POP JUMP JUMPDEST PUSH1 0x0 PUSH1 0x20 DUP3 ADD SWAP1 POP PUSH2 0x1B3 PUSH1 0x0 DUP4 ADD DUP5 PUSH2 0x18F JUMP JUMPDEST SWAP3 SWAP2 POP POP JUMP JUMPDEST PUSH2 0xA09 DUP1 PUSH2 0x1C8 PUSH1 0x0 CODECOPY PUSH1 0x0 RETURN INVALID PUSH1 0x80 PUSH1 0x40 MSTORE PUSH1 0x4 CALLDATASIZE LT PUSH2 0x43 JUMPI PUSH1 0x0 CALLDATALOAD PUSH1 0xE0 SHR DUP1 PUSH4 0x715018A6 EQ PUSH2 0x4F JUMPI DUP1 PUSH4 0x8DA5CB5B EQ PUSH2 0x66 JUMPI DUP1 PUSH4 0xA0116D5C EQ PUSH2 0x91 JUMPI DUP1 PUSH4 0xF2FDE38B EQ PUSH2 0xAD JUMPI PUSH2 0x4A JUMP JUMPDEST CALLDATASIZE PUSH2 0x4A JUMPI STOP JUMPDEST PUSH1 0x0 DUP1 REVERT JUMPDEST CALLVALUE DUP1 ISZERO PUSH2 0x5B JUMPI PUSH1 0x0 DUP1 REVERT JUMPDEST POP PUSH2 0x64 PUSH2 0xD6 JUMP JUMPDEST STOP JUMPDEST CALLVALUE DUP1 ISZERO PUSH2 0x72 JUMPI PUSH1 0x0 DUP1 REVERT JUMPDEST POP PUSH2 0x7B PUSH2 0xEA JUMP JUMPDEST PUSH1 0x40 MLOAD PUSH2 0x88 SWAP2 SWAP1 PUSH2 0x55B JUMP JUMPDEST PUSH1 0x40 MLOAD DUP1 SWAP2 SUB SWAP1 RETURN JUMPDEST PUSH2 0xAB PUSH1 0x4 DUP1 CALLDATASIZE SUB DUP2 ADD SWAP1 PUSH2 0xA6 SWAP2 SWAP1 PUSH2 0x5E5 JUMP JUMPDEST PUSH2 0x113 JUMP JUMPDEST STOP JUMPDEST CALLVALUE DUP1 ISZERO PUSH2 0xB9 JUMPI PUSH1 0x0 DUP1 REVERT JUMPDEST POP PUSH2 0xD4 PUSH1 0x4 DUP1 CALLDATASIZE SUB DUP2 ADD SWAP1 PUSH2 0xCF SWAP2 SWAP1 PUSH2 0x65E JUMP JUMPDEST PUSH2 0x341 JUMP JUMPDEST STOP JUMPDEST PUSH2 0xDE PUSH2 0x3C7 JUMP JUMPDEST PUSH2 0xE8 PUSH1 0x0 PUSH2 0x44E JUMP JUMPDEST JUMP JUMPDEST PUSH1 0x0 DUP1 PUSH1 0x0 SWAP1 SLOAD SWAP1 PUSH2 0x100 EXP SWAP1 DIV PUSH20 0xFFFFFFFFFFFFFFFFFFFFFFFFFFFFFFFFFFFFFFFF AND SWAP1 POP SWAP1 JUMP JUMPDEST PUSH1 0x0 DUP3 DUP3 SWAP1 POP GT DUP1 ISZERO PUSH2 0x12A JUMPI POP PUSH1 0xA DUP3 DUP3 SWAP1 POP GT ISZERO JUMPDEST PUSH2 0x169 JUMPI PUSH1 0x40 MLOAD PUSH32 0x8C379A000000000000000000000000000000000000000000000000000000000 DUP2 MSTORE PUSH1 0x4 ADD PUSH2 0x160 SWAP1 PUSH2 0x6E8 JUMP JUMPDEST PUSH1 0x40 MLOAD DUP1 SWAP2 SUB SWAP1 REVERT JUMPDEST PUSH1 0x0 CALLVALUE GT PUSH2 0x1AC JUMPI PUSH1 0x40 MLOAD PUSH32 0x8C379A000000000000000000000000000000000000000000000000000000000 DUP2 MSTORE PUSH1 0x4 ADD PUSH2 0x1A3 SWAP1 PUSH2 0x754 JUMP JUMPDEST PUSH1 0x40 MLOAD DUP1 SWAP2 SUB SWAP1 REVERT JUMPDEST PUSH1 0x0 DUP3 DUP3 SWAP1 POP CALLVALUE PUSH2 0x1BD SWAP2 SWAP1 PUSH2 0x7DC JUMP JUMPDEST SWAP1 POP PUSH1 0x0 DUP4 DUP4 SWAP1 POP CALLVALUE PUSH2 0x1D0 SWAP2 SWAP1 PUSH2 0x80D JUMP JUMPDEST SWAP1 POP PUSH1 0x0 JUMPDEST DUP5 DUP5 SWAP1 POP DUP2 LT ISZERO PUSH2 0x2E7 JUMPI PUSH1 0x0 DUP1 DUP3 EQ PUSH2 0x1F0 JUMPI PUSH1 0x0 PUSH2 0x1F2 JUMP JUMPDEST DUP3 JUMPDEST DUP5 PUSH2 0x1FD SWAP2 SWAP1 PUSH2 0x83E JUMP JUMPDEST SWAP1 POP PUSH1 0x0 DUP7 DUP7 DUP5 DUP2 DUP2 LT PUSH2 0x214 JUMPI PUSH2 0x213 PUSH2 0x872 JUMP JUMPDEST JUMPDEST SWAP1 POP PUSH1 0x20 MUL ADD PUSH1 0x20 DUP2 ADD SWAP1 PUSH2 0x229 SWAP2 SWAP1 PUSH2 0x65E JUMP JUMPDEST PUSH20 0xFFFFFFFFFFFFFFFFFFFFFFFFFFFFFFFFFFFFFFFF AND DUP3 PUSH1 0x40 MLOAD PUSH2 0x24C SWAP1 PUSH2 0x8D2 JUMP JUMPDEST PUSH1 0x0 PUSH1 0x40 MLOAD DUP1 DUP4 SUB DUP2 DUP6 DUP8 GAS CALL SWAP3 POP POP POP RETURNDATASIZE DUP1 PUSH1 0x0 DUP2 EQ PUSH2 0x289 JUMPI PUSH1 0x40 MLOAD SWAP2 POP PUSH1 0x1F NOT PUSH1 0x3F RETURNDATASIZE ADD AND DUP3 ADD PUSH1 0x40 MSTORE RETURNDATASIZE DUP3 MSTORE RETURNDATASIZE PUSH1 0x0 PUSH1 0x20 DUP5 ADD RETURNDATACOPY PUSH2 0x28E JUMP JUMPDEST PUSH1 0x60 SWAP2 POP JUMPDEST POP POP SWAP1 POP DUP1 PUSH2 0x2D2 JUMPI PUSH1 0x40 MLOAD PUSH32 0x8C379A000000000000000000000000000000000000000000000000000000000 DUP2 MSTORE PUSH1 0x4 ADD PUSH2 0x2C9 SWAP1 PUSH2 0x933 JUMP JUMPDEST PUSH1 0x40 MLOAD DUP1 SWAP2 SUB SWAP1 REVERT JUMPDEST POP POP DUP1 DUP1 PUSH2 0x2DF SWAP1 PUSH2 0x953 JUMP JUMPDEST SWAP2 POP POP PUSH2 0x1D5 JUMP JUMPDEST POP CALLER PUSH20 0xFFFFFFFFFFFFFFFFFFFFFFFFFFFFFFFFFFFFFFFF AND PUSH32 0xF8D62A11D316E69C1460662F86B7046003826DB86FDC0D5FFA8C3ADAA24F0A58 CALLVALUE DUP7 DUP7 SWAP1 POP PUSH1 0x40 MLOAD PUSH2 0x333 SWAP3 SWAP2 SWAP1 PUSH2 0x9AA JUMP JUMPDEST PUSH1 0x40 MLOAD DUP1 SWAP2 SUB SWAP1 LOG2 POP POP POP POP JUMP JUMPDEST PUSH2 0x349 PUSH2 0x3C7 JUMP JUMPDEST PUSH1 0x0 PUSH20 0xFFFFFFFFFFFFFFFFFFFFFFFFFFFFFFFFFFFFFFFF AND DUP2 PUSH20 0xFFFFFFFFFFFFFFFFFFFFFFFFFFFFFFFFFFFFFFFF AND SUB PUSH2 0x3BB JUMPI PUSH1 0x0 PUSH1 0x40 MLOAD PUSH32 0x1E4FBDF700000000000000000000000000000000000000000000000000000000 DUP2 MSTORE PUSH1 0x4 ADD PUSH2 0x3B2 SWAP2 SWAP1 PUSH2 0x55B JUMP JUMPDEST PUSH1 0x40 MLOAD DUP1 SWAP2 SUB SWAP1 REVERT JUMPDEST PUSH2 0x3C4 DUP2 PUSH2 0x44E JUMP JUMPDEST POP JUMP JUMPDEST PUSH2 0x3CF PUSH2 0x512 JUMP JUMPDEST PUSH20 0xFFFFFFFFFFFFFFFFFFFFFFFFFFFFFFFFFFFFFFFF AND PUSH2 0x3ED PUSH2 0xEA JUMP JUMPDEST PUSH20 0xFFFFFFFFFFFFFFFFFFFFFFFFFFFFFFFFFFFFFFFF AND EQ PUSH2 0x44C JUMPI PUSH2 0x410 PUSH2 0x512 JUMP JUMPDEST PUSH1 0x40 MLOAD PUSH32 0x118CDAA700000000000000000000000000000000000000000000000000000000 DUP2 MSTORE PUSH1 0x4 ADD PUSH2 0x443 SWAP2 SWAP1 PUSH2 0x55B JUMP JUMPDEST PUSH1 0x40 MLOAD DUP1 SWAP2 SUB SWAP1 REVERT JUMPDEST JUMP JUMPDEST PUSH1 0x0 DUP1 PUSH1 0x0 SWAP1 SLOAD SWAP1 PUSH2 0x100 EXP SWAP1 DIV PUSH20 0xFFFFFFFFFFFFFFFFFFFFFFFFFFFFFFFFFFFFFFFF AND SWAP1 POP DUP2 PUSH1 0x0 DUP1 PUSH2 0x100 EXP DUP2 SLOAD DUP2 PUSH20 0xFFFFFFFFFFFFFFFFFFFFFFFFFFFFFFFFFFFFFFFF MUL NOT AND SWAP1 DUP4 PUSH20 0xFFFFFFFFFFFFFFFFFFFFFFFFFFFFFFFFFFFFFFFF AND MUL OR SWAP1 SSTORE POP DUP2 PUSH20 0xFFFFFFFFFFFFFFFFFFFFFFFFFFFFFFFFFFFFFFFF AND DUP2 PUSH20 0xFFFFFFFFFFFFFFFFFFFFFFFFFFFFFFFFFFFFFFFF AND PUSH32 0x8BE0079C531659141344CD1FD0A4F28419497F9722A3DAAFE3B4186F6B6457E0 PUSH1 0x40 MLOAD PUSH1 0x40 MLOAD DUP1 SWAP2 SUB SWAP1 LOG3 POP POP JUMP JUMPDEST PUSH1 0x0 CALLER SWAP1 POP SWAP1 JUMP JUMPDEST PUSH1 0x0 PUSH20 0xFFFFFFFFFFFFFFFFFFFFFFFFFFFFFFFFFFFFFFFF DUP3 AND SWAP1 POP SWAP2 SWAP1 POP JUMP JUMPDEST PUSH1 0x0 PUSH2 0x545 DUP3 PUSH2 0x51A JUMP JUMPDEST SWAP1 POP SWAP2 SWAP1 POP JUMP JUMPDEST PUSH2 0x555 DUP2 PUSH2 0x53A JUMP JUMPDEST DUP3 MSTORE POP POP JUMP JUMPDEST PUSH1 0x0 PUSH1 0x20 DUP3 ADD SWAP1 POP PUSH2 0x570 PUSH1 0x0 DUP4 ADD DUP5 PUSH2 0x54C JUMP JUMPDEST SWAP3 SWAP2 POP POP JUMP JUMPDEST PUSH1 0x0 DUP1 REVERT JUMPDEST PUSH1 0x0 DUP1 REVERT JUMPDEST PUSH1 0x0 DUP1 REVERT JUMPDEST PUSH1 0x0 DUP1 REVERT JUMPDEST PUSH1 0x0 DUP1 REVERT JUMPDEST PUSH1 0x0 DUP1 DUP4 PUSH1 0x1F DUP5 ADD SLT PUSH2 0x5A5 JUMPI PUSH2 0x5A4 PUSH2 0x580 JUMP JUMPDEST JUMPDEST DUP3 CALLDATALOAD SWAP1 POP PUSH8 0xFFFFFFFFFFFFFFFF DUP2 GT ISZERO PUSH2 0x5C2 JUMPI PUSH2 0x5C1 PUSH2 0x585 JUMP JUMPDEST JUMPDEST PUSH1 0x20 DUP4 ADD SWAP2 POP DUP4 PUSH1 0x20 DUP3 MUL DUP4 ADD GT ISZERO PUSH2 0x5DE JUMPI PUSH2 0x5DD PUSH2 0x58A JUMP JUMPDEST JUMPDEST SWAP3 POP SWAP3 SWAP1 POP JUMP JUMPDEST PUSH1 0x0 DUP1 PUSH1 0x20 DUP4 DUP6 SUB SLT ISZERO PUSH2 0x5FC JUMPI PUSH2 0x5FB PUSH2 0x576 JUMP JUMPDEST JUMPDEST PUSH1 0x0 DUP4 ADD CALLDATALOAD PUSH8 0xFFFFFFFFFFFFFFFF DUP2 GT ISZERO PUSH2 0x61A JUMPI PUSH2 0x619 PUSH2 0x57B JUMP JUMPDEST JUMPDEST PUSH2 0x626 DUP6 DUP3 DUP7 ADD PUSH2 0x58F JUMP JUMPDEST SWAP3 POP SWAP3 POP POP SWAP3 POP SWAP3 SWAP1 POP JUMP JUMPDEST PUSH2 0x63B DUP2 PUSH2 0x53A JUMP JUMPDEST DUP2 EQ PUSH2 0x646 JUMPI PUSH1 0x0 DUP1 REVERT JUMPDEST POP JUMP JUMPDEST PUSH1 0x0 DUP2 CALLDATALOAD SWAP1 POP PUSH2 0x658 DUP2 PUSH2 0x632 JUMP JUMPDEST SWAP3 SWAP2 POP POP JUMP JUMPDEST PUSH1 0x0 PUSH1 0x20 DUP3 DUP5 SUB SLT ISZERO PUSH2 0x674 JUMPI PUSH2 0x673 PUSH2 0x576 JUMP JUMPDEST JUMPDEST PUSH1 0x0 PUSH2 0x682 DUP5 DUP3 DUP6 ADD PUSH2 0x649 JUMP JUMPDEST SWAP2 POP POP SWAP3 SWAP2 POP POP JUMP JUMPDEST PUSH1 0x0 DUP3 DUP3 MSTORE PUSH1 0x20 DUP3 ADD SWAP1 POP SWAP3 SWAP2 POP POP JUMP JUMPDEST PUSH32 0x4D617820313020726563697069656E747320616C6C6F77656400000000000000 PUSH1 0x0 DUP3 ADD MSTORE POP JUMP JUMPDEST PUSH1 0x0 PUSH2 0x6D2 PUSH1 0x19 DUP4 PUSH2 0x68B JUMP JUMPDEST SWAP2 POP PUSH2 0x6DD DUP3 PUSH2 0x69C JUMP JUMPDEST PUSH1 0x20 DUP3 ADD SWAP1 POP SWAP2 SWAP1 POP JUMP JUMPDEST PUSH1 0x0 PUSH1 0x20 DUP3 ADD SWAP1 POP DUP2 DUP2 SUB PUSH1 0x0 DUP4 ADD MSTORE PUSH2 0x701 DUP2 PUSH2 0x6C5 JUMP JUMPDEST SWAP1 POP SWAP2 SWAP1 POP JUMP JUMPDEST PUSH32 0x4D7573742073656E642045544800000000000000000000000000000000000000 PUSH1 0x0 DUP3 ADD MSTORE POP JUMP JUMPDEST PUSH1 0x0 PUSH2 0x73E PUSH1 0xD DUP4 PUSH2 0x68B JUMP JUMPDEST SWAP2 POP PUSH2 0x749 DUP3 PUSH2 0x708 JUMP JUMPDEST PUSH1 0x20 DUP3 ADD SWAP1 POP SWAP2 SWAP1 POP JUMP JUMPDEST PUSH1 0x0 PUSH1 0x20 DUP3 ADD SWAP1 POP DUP2 DUP2 SUB PUSH1 0x0 DUP4 ADD MSTORE PUSH2 0x76D DUP2 PUSH2 0x731 JUMP JUMPDEST SWAP1 POP SWAP2 SWAP1 POP JUMP JUMPDEST PUSH1 0x0 DUP2 SWAP1 POP SWAP2 SWAP1 POP JUMP JUMPDEST PUSH32 0x4E487B7100000000000000000000000000000000000000000000000000000000 PUSH1 0x0 MSTORE PUSH1 0x12 PUSH1 0x4 MSTORE PUSH1 0x24 PUSH1 0x0 REVERT JUMPDEST PUSH32 0x4E487B7100000000000000000000000000000000000000000000000000000000 PUSH1 0x0 MSTORE PUSH1 0x11 PUSH1 0x4 MSTORE PUSH1 0x24 PUSH1 0x0 REVERT JUMPDEST PUSH1 0x0 PUSH2 0x7E7 DUP3 PUSH2 0x774 JUMP JUMPDEST SWAP2 POP PUSH2 0x7F2 DUP4 PUSH2 0x774 JUMP JUMPDEST SWAP3 POP DUP3 PUSH2 0x802 JUMPI PUSH2 0x801 PUSH2 0x77E JUMP JUMPDEST JUMPDEST DUP3 DUP3 DIV SWAP1 POP SWAP3 SWAP2 POP POP JUMP JUMPDEST PUSH1 0x0 PUSH2 0x818 DUP3 PUSH2 0x774 JUMP JUMPDEST SWAP2 POP PUSH2 0x823 DUP4 PUSH2 0x774 JUMP JUMPDEST SWAP3 POP DUP3 PUSH2 0x833 JUMPI PUSH2 0x832 PUSH2 0x77E JUMP JUMPDEST JUMPDEST DUP3 DUP3 MOD SWAP1 POP SWAP3 SWAP2 POP POP JUMP JUMPDEST PUSH1 0x0 PUSH2 0x849 DUP3 PUSH2 0x774 JUMP JUMPDEST SWAP2 POP PUSH2 0x854 DUP4 PUSH2 0x774 JUMP JUMPDEST SWAP3 POP DUP3 DUP3 ADD SWAP1 POP DUP1 DUP3 GT ISZERO PUSH2 0x86C JUMPI PUSH2 0x86B PUSH2 0x7AD JUMP JUMPDEST JUMPDEST SWAP3 SWAP2 POP POP JUMP JUMPDEST PUSH32 0x4E487B7100000000000000000000000000000000000000000000000000000000 PUSH1 0x0 MSTORE PUSH1 0x32 PUSH1 0x4 MSTORE PUSH1 0x24 PUSH1 0x0 REVERT JUMPDEST PUSH1 0x0 DUP2 SWAP1 POP SWAP3 SWAP2 POP POP JUMP JUMPDEST POP JUMP JUMPDEST PUSH1 0x0 PUSH2 0x8BC PUSH1 0x0 DUP4 PUSH2 0x8A1 JUMP JUMPDEST SWAP2 POP PUSH2 0x8C7 DUP3 PUSH2 0x8AC JUMP JUMPDEST PUSH1 0x0 DUP3 ADD SWAP1 POP SWAP2 SWAP1 POP JUMP JUMPDEST PUSH1 0x0 PUSH2 0x8DD DUP3 PUSH2 0x8AF JUMP JUMPDEST SWAP2 POP DUP2 SWAP1 POP SWAP2 SWAP1 POP JUMP JUMPDEST PUSH32 0x455448205472616E73666572206661696C656400000000000000000000000000 PUSH1 0x0 DUP3 ADD MSTORE POP JUMP JUMPDEST PUSH1 0x0 PUSH2 0x91D PUSH1 0x13 DUP4 PUSH2 0x68B JUMP JUMPDEST SWAP2 POP PUSH2 0x928 DUP3 PUSH2 0x8E7 JUMP JUMPDEST PUSH1 0x20 DUP3 ADD SWAP1 POP SWAP2 SWAP1 POP JUMP JUMPDEST PUSH1 0x0 PUSH1 0x20 DUP3 ADD SWAP1 POP DUP2 DUP2 SUB PUSH1 0x0 DUP4 ADD MSTORE PUSH2 0x94C DUP2 PUSH2 0x910 JUMP JUMPDEST SWAP1 POP SWAP2 SWAP1 POP JUMP JUMPDEST PUSH1 0x0 PUSH2 0x95E DUP3 PUSH2 0x774 JUMP JUMPDEST SWAP2 POP PUSH32 0xFFFFFFFFFFFFFFFFFFFFFFFFFFFFFFFFFFFFFFFFFFFFFFFFFFFFFFFFFFFFFFFF DUP3 SUB PUSH2 0x990 JUMPI PUSH2 0x98F PUSH2 0x7AD JUMP JUMPDEST JUMPDEST PUSH1 0x1 DUP3 ADD SWAP1 POP SWAP2 SWAP1 POP JUMP JUMPDEST PUSH2 0x9A4 DUP2 PUSH2 0x774 JUMP JUMPDEST DUP3 MSTORE POP POP JUMP JUMPDEST PUSH1 0x0 PUSH1 0x40 DUP3 ADD SWAP1 POP PUSH2 0x9BF PUSH1 0x0 DUP4 ADD DUP6 PUSH2 0x99B JUMP JUMPDEST PUSH2 0x9CC PUSH1 0x20 DUP4 ADD DUP5 PUSH2 0x99B JUMP JUMPDEST SWAP4 SWAP3 POP POP POP JUMP INVALID LOG2 PUSH5 0x6970667358 0x22 SLT KECCAK256 PUSH9 0x9EB01256051D8CAAF4 0xE2 ADDMOD 0xCB 0xD1 TIMESTAMP PUSH15 0x85882349241FBDA6AA7B20C8BDFDF 0xF6 PUSH5 0x736F6C6343 STOP ADDMOD EQ STOP CALLER "},"methodIdentifiers":{"distributeETH(address[])":"a0116d5c","owner()":"8da5cb5b","renounceOwnership()":"715018a6","transferOwnership(address)":"f2fde38b"}}}}}